{
  "contractName": "FGCT",
  "abi": [
    {
      "inputs": [
        {
          "internalType": "uint256",
          "name": "initialSupply",
          "type": "uint256"
        }
      ],
      "payable": false,
      "stateMutability": "nonpayable",
      "type": "constructor"
    },
    {
      "anonymous": false,
      "inputs": [
        {
          "indexed": true,
          "internalType": "address",
          "name": "entity",
          "type": "address"
        }
      ],
      "name": "EntityVerified",
      "type": "event"
    },
    {
      "constant": true,
      "inputs": [
        {
          "internalType": "address",
          "name": "account",
          "type": "address"
        }
      ],
      "name": "balanceOf",
      "outputs": [
        {
          "internalType": "uint256",
          "name": "",
          "type": "uint256"
        }
      ],
      "payable": false,
      "stateMutability": "view",
      "type": "function"
    },
    {
      "constant": true,
      "inputs": [],
      "name": "totalSupply",
      "outputs": [
        {
          "internalType": "uint256",
          "name": "",
          "type": "uint256"
        }
      ],
      "payable": false,
      "stateMutability": "view",
      "type": "function"
    },
    {
      "constant": true,
      "inputs": [
        {
          "internalType": "address",
          "name": "",
          "type": "address"
        }
      ],
      "name": "verifiedEntities",
      "outputs": [
        {
          "internalType": "bool",
          "name": "",
          "type": "bool"
        }
      ],
      "payable": false,
      "stateMutability": "view",
      "type": "function"
    },
    {
      "constant": false,
      "inputs": [
        {
          "internalType": "address",
          "name": "entity",
          "type": "address"
        }
      ],
      "name": "verifyEntity",
      "outputs": [],
      "payable": false,
      "stateMutability": "nonpayable",
      "type": "function"
    },
    {
      "constant": false,
      "inputs": [
        {
          "internalType": "address",
          "name": "entity",
          "type": "address"
        },
        {
          "internalType": "uint256",
          "name": "amount",
          "type": "uint256"
        }
      ],
      "name": "issueTokens",
      "outputs": [],
      "payable": false,
      "stateMutability": "nonpayable",
      "type": "function"
    },
    {
      "constant": false,
      "inputs": [
        {
          "internalType": "address",
          "name": "_to",
          "type": "address"
        },
        {
          "internalType": "uint256",
          "name": "_value",
          "type": "uint256"
        }
      ],
      "name": "transfer",
      "outputs": [
        {
          "internalType": "bool",
          "name": "success",
          "type": "bool"
        }
      ],
      "payable": false,
      "stateMutability": "nonpayable",
      "type": "function"
    },
    {
      "constant": false,
      "inputs": [
        {
          "internalType": "address",
          "name": "_from",
          "type": "address"
        },
        {
          "internalType": "address",
          "name": "_to",
          "type": "address"
        },
        {
          "internalType": "uint256",
          "name": "_value",
          "type": "uint256"
        }
      ],
      "name": "transferFrom",
      "outputs": [
        {
          "internalType": "bool",
          "name": "success",
          "type": "bool"
        }
      ],
      "payable": false,
      "stateMutability": "nonpayable",
      "type": "function"
    }
  ],
  "bytecode": "0x608060405234801561001057600080fd5b506040516109953803806109958339818101604052602081101561003357600080fd5b810190808051906020019092919050505080808060008190555080600160003373ffffffffffffffffffffffffffffffffffffffff1673ffffffffffffffffffffffffffffffffffffffff168152602001908152602001600020819055505050506108f2806100a36000396000f3fe608060405234801561001057600080fd5b506004361061007d5760003560e01c806370a082311161005b57806370a0823114610174578063828057ef146101cc5780638a2fabad14610210578063a9059cbb1461026c5761007d565b806318160ddd1461008257806323b872dd146100a0578063475a9fa914610126575b600080fd5b61008a6102d2565b6040518082815260200191505060405180910390f35b61010c600480360360608110156100b657600080fd5b81019080803573ffffffffffffffffffffffffffffffffffffffff169060200190929190803573ffffffffffffffffffffffffffffffffffffffff169060200190929190803590602001909291905050506102db565b604051808215151515815260200191505060405180910390f35b6101726004803603604081101561013c57600080fd5b81019080803573ffffffffffffffffffffffffffffffffffffffff169060200190929190803590602001909291905050506102f1565b005b6101b66004803603602081101561018a57600080fd5b81019080803573ffffffffffffffffffffffffffffffffffffffff1690602001909291905050506103be565b6040518082815260200191505060405180910390f35b61020e600480360360208110156101e257600080fd5b81019080803573ffffffffffffffffffffffffffffffffffffffff169060200190929190505050610407565b005b6102526004803603602081101561022657600080fd5b81019080803573ffffffffffffffffffffffffffffffffffffffff1690602001909291905050506104a5565b604051808215151515815260200191505060405180910390f35b6102b86004803603604081101561028257600080fd5b81019080803573ffffffffffffffffffffffffffffffffffffffff169060200190929190803590602001909291905050506104c5565b604051808215151515815260200191505060405180910390f35b60008054905090565b60006102e88484846104d9565b90509392505050565b600260008373ffffffffffffffffffffffffffffffffffffffff1673ffffffffffffffffffffffffffffffffffffffff16815260200190815260200160002060009054906101000a900460ff166103b0576040517f08c379a000000000000000000000000000000000000000000000000000000000815260040180806020018281038252601c8152602001807f456e74697479206e6f742076657269666965642062792049434652450000000081525060200191505060405180910390fd5b6103ba82826104ef565b5050565b6000600160008373ffffffffffffffffffffffffffffffffffffffff1673ffffffffffffffffffffffffffffffffffffffff168152602001908152602001600020549050919050565b6001600260008373ffffffffffffffffffffffffffffffffffffffff1673ffffffffffffffffffffffffffffffffffffffff16815260200190815260200160002060006101000a81548160ff0219169083151502179055508073ffffffffffffffffffffffffffffffffffffffff167fa3710f2b2505ddd76d00993c1fad93af4104d857fa3e237c9548c028c44935cc60405160405180910390a250565b60026020528060005260406000206000915054906101000a900460ff1681565b60006104d183836105f2565b905092915050565b60006104e6848484610606565b90509392505050565b600073ffffffffffffffffffffffffffffffffffffffff168273ffffffffffffffffffffffffffffffffffffffff161415610592576040517f08c379a00000000000000000000000000000000000000000000000000000000081526004018080602001828103825260188152602001807f4d696e7420746f20746865207a65726f2061646472657373000000000000000081525060200191505060405180910390fd5b80600080828254019250508190555080600160008473ffffffffffffffffffffffffffffffffffffffff1673ffffffffffffffffffffffffffffffffffffffff168152602001908152602001600020600082825401925050819055505050565b60006105fe8383610762565b905092915050565b600081600160008673ffffffffffffffffffffffffffffffffffffffff1673ffffffffffffffffffffffffffffffffffffffff1681526020019081526020016000205410156106bd576040517f08c379a00000000000000000000000000000000000000000000000000000000081526004018080602001828103825260148152602001807f496e73756666696369656e742062616c616e636500000000000000000000000081525060200191505060405180910390fd5b81600160008673ffffffffffffffffffffffffffffffffffffffff1673ffffffffffffffffffffffffffffffffffffffff1681526020019081526020016000206000828254039250508190555081600160008573ffffffffffffffffffffffffffffffffffffffff1673ffffffffffffffffffffffffffffffffffffffff16815260200190815260200160002060008282540192505081905550600190509392505050565b600081600160003373ffffffffffffffffffffffffffffffffffffffff1673ffffffffffffffffffffffffffffffffffffffff168152602001908152602001600020541015610819576040517f08c379a00000000000000000000000000000000000000000000000000000000081526004018080602001828103825260148152602001807f496e73756666696369656e742062616c616e636500000000000000000000000081525060200191505060405180910390fd5b81600160003373ffffffffffffffffffffffffffffffffffffffff1673ffffffffffffffffffffffffffffffffffffffff1681526020019081526020016000206000828254039250508190555081600160008573ffffffffffffffffffffffffffffffffffffffff1673ffffffffffffffffffffffffffffffffffffffff16815260200190815260200160002060008282540192505081905550600190509291505056fea265627a7a7231582076c68b115b599a0ce294c0a08abc1b234f527aaeddd8b9b3c8f4702436ecd49764736f6c63430005100032",
  "source": "// SPDX-License-Identifier: MIT\r\npragma solidity >=0.4.22 <8.10.0;\r\n\r\ncontract Token {\r\n    uint256 private _totalSupply;\r\n    mapping(address => uint256) private _balances;\r\n\r\n    constructor(uint256 initialSupply) public {\r\n        _totalSupply = initialSupply;\r\n        _balances[msg.sender] = initialSupply;\r\n    }\r\n\r\n    function totalSupply() public view returns (uint256) {\r\n        return _totalSupply;\r\n    }\r\n\r\n    function balanceOf(address account) public view returns (uint256) {\r\n        return _balances[account];\r\n    }\r\n\r\n    function transfer(address _to, uint256 _value) public returns (bool) {\r\n        require(_balances[msg.sender] >= _value, \"Insufficient balance\");\r\n        _balances[msg.sender] -= _value;\r\n        _balances[_to] += _value;\r\n        return true;\r\n    }\r\n\r\n    function transferFrom(address _from, address _to, uint256 _value) public returns (bool) {\r\n        require(_balances[_from] >= _value, \"Insufficient balance\");\r\n        _balances[_from] -= _value;\r\n        _balances[_to] += _value;\r\n        return true;\r\n    }\r\n\r\n    function _mint(address account, uint256 amount) internal {\r\n        require(account != address(0), \"Mint to the zero address\");\r\n        _totalSupply += amount;\r\n        _balances[account] += amount;\r\n    }\r\n}\r\n\r\ncontract StandardToken is Token {\r\n    constructor(uint256 initialSupply) Token(initialSupply) public {}\r\n\r\n    function transfer(address _to, uint256 _value) public returns (bool success) {\r\n        return super.transfer(_to, _value);\r\n    }\r\n\r\n    function transferFrom(address _from, address _to, uint256 _value) public returns (bool success) {\r\n        return super.transferFrom(_from, _to, _value);\r\n    }\r\n}\r\n\r\ncontract FGCT is StandardToken {\r\n    constructor(uint256 initialSupply) StandardToken(initialSupply) public {}\r\n\r\n    // Mapping to store verified entities\r\n    mapping(address => bool) public verifiedEntities;\r\n\r\n    // Event to log verification of entities\r\n    event EntityVerified(address indexed entity);\r\n\r\n    // Function to verify entities by the owner\r\n    function verifyEntity(address entity) external {\r\n        verifiedEntities[entity] = true;\r\n        emit EntityVerified(entity);\r\n    }\r\n\r\n    // Function to issue tokens to verified entities\r\n    function issueTokens(address entity, uint256 amount) external {\r\n        require(verifiedEntities[entity], \"Entity not verified by ICFRE\");\r\n        _mint(entity, amount);\r\n    }\r\n\r\n    // Override transfer function\r\n    function transfer(address _to, uint256 _value) public returns (bool success) {\r\n        return super.transfer(_to, _value);\r\n    }\r\n\r\n    // Override transferFrom function\r\n    function transferFrom(address _from, address _to, uint256 _value) public returns (bool success) {\r\n        return super.transferFrom(_from, _to, _value);\r\n    }\r\n}",
  "sourcePath": "C:\\Users\\Vaishali\\Desktop\\greenxchange\\contracts\\FGCT.sol",
  "compiler": {
    "name": "solc",
    "version": "0.5.16+commit.9c3226ce.Emscripten.clang"
  },
  "schemaVersion": "3.4.16",
  "updatedAt": "2024-11-12T19:52:43.502Z",
  "networkType": "ethereum",
  "devdoc": {
    "methods": {}
  },
  "userdoc": {
    "methods": {}
  }
}