{
  "contractName": "GreenCreditToken",
  "abi": [
    {
      "inputs": [
        {
          "internalType": "address",
          "name": "_participantsRegistry",
          "type": "address"
        }
      ],
      "stateMutability": "nonpayable",
      "type": "constructor"
    },
    {
      "inputs": [
        {
          "internalType": "address",
          "name": "spender",
          "type": "address"
        },
        {
          "internalType": "uint256",
          "name": "allowance",
          "type": "uint256"
        },
        {
          "internalType": "uint256",
          "name": "needed",
          "type": "uint256"
        }
      ],
      "name": "ERC20InsufficientAllowance",
      "type": "error"
    },
    {
      "inputs": [
        {
          "internalType": "address",
          "name": "sender",
          "type": "address"
        },
        {
          "internalType": "uint256",
          "name": "balance",
          "type": "uint256"
        },
        {
          "internalType": "uint256",
          "name": "needed",
          "type": "uint256"
        }
      ],
      "name": "ERC20InsufficientBalance",
      "type": "error"
    },
    {
      "inputs": [
        {
          "internalType": "address",
          "name": "approver",
          "type": "address"
        }
      ],
      "name": "ERC20InvalidApprover",
      "type": "error"
    },
    {
      "inputs": [
        {
          "internalType": "address",
          "name": "receiver",
          "type": "address"
        }
      ],
      "name": "ERC20InvalidReceiver",
      "type": "error"
    },
    {
      "inputs": [
        {
          "internalType": "address",
          "name": "sender",
          "type": "address"
        }
      ],
      "name": "ERC20InvalidSender",
      "type": "error"
    },
    {
      "inputs": [
        {
          "internalType": "address",
          "name": "spender",
          "type": "address"
        }
      ],
      "name": "ERC20InvalidSpender",
      "type": "error"
    },
    {
      "inputs": [
        {
          "internalType": "address",
          "name": "owner",
          "type": "address"
        }
      ],
      "name": "OwnableInvalidOwner",
      "type": "error"
    },
    {
      "inputs": [
        {
          "internalType": "address",
          "name": "account",
          "type": "address"
        }
      ],
      "name": "OwnableUnauthorizedAccount",
      "type": "error"
    },
    {
      "anonymous": false,
      "inputs": [
        {
          "indexed": true,
          "internalType": "address",
          "name": "owner",
          "type": "address"
        },
        {
          "indexed": true,
          "internalType": "address",
          "name": "spender",
          "type": "address"
        },
        {
          "indexed": false,
          "internalType": "uint256",
          "name": "value",
          "type": "uint256"
        }
      ],
      "name": "Approval",
      "type": "event"
    },
    {
      "anonymous": false,
      "inputs": [
        {
          "indexed": true,
          "internalType": "address",
          "name": "previousOwner",
          "type": "address"
        },
        {
          "indexed": true,
          "internalType": "address",
          "name": "newOwner",
          "type": "address"
        }
      ],
      "name": "OwnershipTransferred",
      "type": "event"
    },
    {
      "anonymous": false,
      "inputs": [
        {
          "indexed": true,
          "internalType": "address",
          "name": "from",
          "type": "address"
        },
        {
          "indexed": true,
          "internalType": "address",
          "name": "to",
          "type": "address"
        },
        {
          "indexed": false,
          "internalType": "uint256",
          "name": "value",
          "type": "uint256"
        }
      ],
      "name": "Transfer",
      "type": "event"
    },
    {
      "inputs": [
        {
          "internalType": "address",
          "name": "owner",
          "type": "address"
        },
        {
          "internalType": "address",
          "name": "spender",
          "type": "address"
        }
      ],
      "name": "allowance",
      "outputs": [
        {
          "internalType": "uint256",
          "name": "",
          "type": "uint256"
        }
      ],
      "stateMutability": "view",
      "type": "function",
      "constant": true
    },
    {
      "inputs": [
        {
          "internalType": "address",
          "name": "spender",
          "type": "address"
        },
        {
          "internalType": "uint256",
          "name": "value",
          "type": "uint256"
        }
      ],
      "name": "approve",
      "outputs": [
        {
          "internalType": "bool",
          "name": "",
          "type": "bool"
        }
      ],
      "stateMutability": "nonpayable",
      "type": "function"
    },
    {
      "inputs": [
        {
          "internalType": "address",
          "name": "account",
          "type": "address"
        }
      ],
      "name": "balanceOf",
      "outputs": [
        {
          "internalType": "uint256",
          "name": "",
          "type": "uint256"
        }
      ],
      "stateMutability": "view",
      "type": "function",
      "constant": true
    },
    {
      "inputs": [],
      "name": "decimals",
      "outputs": [
        {
          "internalType": "uint8",
          "name": "",
          "type": "uint8"
        }
      ],
      "stateMutability": "view",
      "type": "function",
      "constant": true
    },
    {
      "inputs": [],
      "name": "name",
      "outputs": [
        {
          "internalType": "string",
          "name": "",
          "type": "string"
        }
      ],
      "stateMutability": "view",
      "type": "function",
      "constant": true
    },
    {
      "inputs": [],
      "name": "owner",
      "outputs": [
        {
          "internalType": "address",
          "name": "",
          "type": "address"
        }
      ],
      "stateMutability": "view",
      "type": "function",
      "constant": true
    },
    {
      "inputs": [],
      "name": "participantsRegistry",
      "outputs": [
        {
          "internalType": "contract IParticipantsRegistry",
          "name": "",
          "type": "address"
        }
      ],
      "stateMutability": "view",
      "type": "function",
      "constant": true
    },
    {
      "inputs": [],
      "name": "renounceOwnership",
      "outputs": [],
      "stateMutability": "nonpayable",
      "type": "function"
    },
    {
      "inputs": [],
      "name": "symbol",
      "outputs": [
        {
          "internalType": "string",
          "name": "",
          "type": "string"
        }
      ],
      "stateMutability": "view",
      "type": "function",
      "constant": true
    },
    {
      "inputs": [],
      "name": "totalSupply",
      "outputs": [
        {
          "internalType": "uint256",
          "name": "",
          "type": "uint256"
        }
      ],
      "stateMutability": "view",
      "type": "function",
      "constant": true
    },
    {
      "inputs": [
        {
          "internalType": "address",
          "name": "to",
          "type": "address"
        },
        {
          "internalType": "uint256",
          "name": "value",
          "type": "uint256"
        }
      ],
      "name": "transfer",
      "outputs": [
        {
          "internalType": "bool",
          "name": "",
          "type": "bool"
        }
      ],
      "stateMutability": "nonpayable",
      "type": "function"
    },
    {
      "inputs": [
        {
          "internalType": "address",
          "name": "from",
          "type": "address"
        },
        {
          "internalType": "address",
          "name": "to",
          "type": "address"
        },
        {
          "internalType": "uint256",
          "name": "value",
          "type": "uint256"
        }
      ],
      "name": "transferFrom",
      "outputs": [
        {
          "internalType": "bool",
          "name": "",
          "type": "bool"
        }
      ],
      "stateMutability": "nonpayable",
      "type": "function"
    },
    {
      "inputs": [
        {
          "internalType": "address",
          "name": "newOwner",
          "type": "address"
        }
      ],
      "name": "transferOwnership",
      "outputs": [],
      "stateMutability": "nonpayable",
      "type": "function"
    },
    {
      "inputs": [
        {
          "internalType": "string",
          "name": "",
          "type": "string"
        }
      ],
      "name": "verifiedCertificates",
      "outputs": [
        {
          "internalType": "bool",
          "name": "",
          "type": "bool"
        }
      ],
      "stateMutability": "view",
      "type": "function",
      "constant": true
    },
    {
      "inputs": [
        {
          "internalType": "address",
          "name": "to",
          "type": "address"
        },
        {
          "internalType": "uint256",
          "name": "amount",
          "type": "uint256"
        },
        {
          "internalType": "string",
          "name": "certificateId",
          "type": "string"
        },
        {
          "internalType": "string",
          "name": "participantName",
          "type": "string"
        }
      ],
      "name": "mintGreenCredits",
      "outputs": [],
      "stateMutability": "nonpayable",
      "type": "function"
    }
  ],
  "bytecode": "0x608060405234801561001057600080fd5b50604051611edc380380611edc833981810160405281019061003291906102bc565b336040518060400160405280601081526020017f477265656e437265646974546f6b656e000000000000000000000000000000008152506040518060400160405280600381526020017f474354000000000000000000000000000000000000000000000000000000000081525081600390816100ae919061053f565b5080600490816100be919061053f565b505050600073ffffffffffffffffffffffffffffffffffffffff168173ffffffffffffffffffffffffffffffffffffffff16036101335760006040517f1e4fbdf700000000000000000000000000000000000000000000000000000000815260040161012a9190610620565b60405180910390fd5b61014b81610193640100000000026401000000009004565b5080600760006101000a81548173ffffffffffffffffffffffffffffffffffffffff021916908373ffffffffffffffffffffffffffffffffffffffff1602179055505061063b565b6000600560009054906101000a900473ffffffffffffffffffffffffffffffffffffffff16905081600560006101000a81548173ffffffffffffffffffffffffffffffffffffffff021916908373ffffffffffffffffffffffffffffffffffffffff1602179055508173ffffffffffffffffffffffffffffffffffffffff168173ffffffffffffffffffffffffffffffffffffffff167f8be0079c531659141344cd1fd0a4f28419497f9722a3daafe3b4186f6b6457e060405160405180910390a35050565b600080fd5b600073ffffffffffffffffffffffffffffffffffffffff82169050919050565b60006102898261025e565b9050919050565b6102998161027e565b81146102a457600080fd5b50565b6000815190506102b681610290565b92915050565b6000602082840312156102d2576102d1610259565b5b60006102e0848285016102a7565b91505092915050565b600081519050919050565b7f4e487b7100000000000000000000000000000000000000000000000000000000600052604160045260246000fd5b7f4e487b7100000000000000000000000000000000000000000000000000000000600052602260045260246000fd5b6000600282049050600182168061036a57607f821691505b60208210810361037d5761037c610323565b5b50919050565b60008190508160005260206000209050919050565b60006020601f8301049050919050565b60008160020a8302905092915050565b6000600883026103e87fffffffffffffffffffffffffffffffffffffffffffffffffffffffffffffffff826103a8565b6103f286836103a8565b95508019841693508086168417925050509392505050565b6000819050919050565b6000819050919050565b600061043961043461042f8461040a565b610414565b61040a565b9050919050565b6000819050919050565b6104538361041e565b61046761045f82610440565b8484546103b8565b825550505050565b600090565b61047c61046f565b61048781848461044a565b505050565b5b818110156104ab576104a0600082610474565b60018101905061048d565b5050565b601f8211156104f0576104c181610383565b6104ca84610398565b810160208510156104d9578190505b6104ed6104e585610398565b83018261048c565b50505b505050565b60008160020a8304905092915050565b6000610516600019846008026104f5565b1980831691505092915050565b600061052f8383610505565b9150826002028217905092915050565b610548826102e9565b67ffffffffffffffff811115610561576105606102f4565b5b61056b8254610352565b6105768282856104af565b600060209050601f8311600181146105a95760008415610597578287015190505b6105a18582610523565b865550610609565b601f1984166105b786610383565b60005b828110156105df578489015182556001820191506020850194506020810190506105ba565b868310156105fc57848901516105f8601f891682610505565b8355505b6001600288020188555050505b505050505050565b61061a8161027e565b82525050565b60006020820190506106356000830184610611565b92915050565b6118928061064a6000396000f3fe608060405234801561001057600080fd5b5060043610610112576000357c01000000000000000000000000000000000000000000000000000000009004806370a08231116100b4578063a9059cbb11610083578063a9059cbb14610293578063c947e3be146102c3578063dd62ed3e146102e1578063f2fde38b1461031157610112565b806370a082311461021d578063715018a61461024d5780638da5cb5b1461025757806395d89b411461027557610112565b806323b872dd116100f057806323b872dd14610183578063313ce567146101b35780633bdce9fb146101d15780635c6ee7bf146101ed57610112565b806306fdde0314610117578063095ea7b31461013557806318160ddd14610165575b600080fd5b61011f61032d565b60405161012c91906110ea565b60405180910390f35b61014f600480360381019061014a91906111b4565b6103bf565b60405161015c919061120f565b60405180910390f35b61016d6103e2565b60405161017a9190611239565b60405180910390f35b61019d60048036038101906101989190611254565b6103ec565b6040516101aa919061120f565b60405180910390f35b6101bb61041b565b6040516101c891906112c3565b60405180910390f35b6101eb60048036038101906101e69190611413565b610424565b005b610207600480360381019061020291906114b2565b610649565b604051610214919061120f565b60405180910390f35b610237600480360381019061023291906114fb565b61067f565b6040516102449190611239565b60405180910390f35b6102556106c7565b005b61025f6106db565b60405161026c9190611537565b60405180910390f35b61027d610705565b60405161028a91906110ea565b60405180910390f35b6102ad60048036038101906102a891906111b4565b610797565b6040516102ba919061120f565b60405180910390f35b6102cb6107ba565b6040516102d891906115b1565b60405180910390f35b6102fb60048036038101906102f691906115cc565b6107e0565b6040516103089190611239565b60405180910390f35b61032b600480360381019061032691906114fb565b610867565b005b60606003805461033c9061163b565b80601f01602080910402602001604051908101604052809291908181526020018280546103689061163b565b80156103b55780601f1061038a576101008083540402835291602001916103b5565b820191906000526020600020905b81548152906001019060200180831161039857829003601f168201915b5050505050905090565b6000806103ca6108ed565b90506103d78185856108f5565b600191505092915050565b6000600254905090565b6000806103f76108ed565b9050610404858285610907565b61040f85858561099b565b60019150509392505050565b60006012905090565b61042c610a8f565b60068260405161043c91906116a8565b908152602001604051809103902060009054906101000a900460ff1615610498576040517f08c379a000000000000000000000000000000000000000000000000000000000815260040161048f9061170b565b60405180910390fd5b600760009054906101000a900473ffffffffffffffffffffffffffffffffffffffff1673ffffffffffffffffffffffffffffffffffffffff16634a34495f856040518263ffffffff167c010000000000000000000000000000000000000000000000000000000002815260040161050f9190611537565b602060405180830381865afa15801561052c573d6000803e3d6000fd5b505050506040513d601f19601f820116820180604052508101906105509190611757565b61060257600760009054906101000a900473ffffffffffffffffffffffffffffffffffffffff1673ffffffffffffffffffffffffffffffffffffffff16633b744b478583866040518463ffffffff167c01000000000000000000000000000000000000000000000000000000000281526004016105cf93929190611784565b600060405180830381600087803b1580156105e957600080fd5b505af11580156105fd573d6000803e3d6000fd5b505050505b600160068360405161061491906116a8565b908152602001604051809103902060006101000a81548160ff0219169083151502179055506106438484610b16565b50505050565b6006818051602081018201805184825260208301602085012081835280955050505050506000915054906101000a900460ff1681565b60008060008373ffffffffffffffffffffffffffffffffffffffff1673ffffffffffffffffffffffffffffffffffffffff168152602001908152602001600020549050919050565b6106cf610a8f565b6106d96000610b98565b565b6000600560009054906101000a900473ffffffffffffffffffffffffffffffffffffffff16905090565b6060600480546107149061163b565b80601f01602080910402602001604051908101604052809291908181526020018280546107409061163b565b801561078d5780601f106107625761010080835404028352916020019161078d565b820191906000526020600020905b81548152906001019060200180831161077057829003601f168201915b5050505050905090565b6000806107a26108ed565b90506107af81858561099b565b600191505092915050565b600760009054906101000a900473ffffffffffffffffffffffffffffffffffffffff1681565b6000600160008473ffffffffffffffffffffffffffffffffffffffff1673ffffffffffffffffffffffffffffffffffffffff16815260200190815260200160002060008373ffffffffffffffffffffffffffffffffffffffff1673ffffffffffffffffffffffffffffffffffffffff16815260200190815260200160002054905092915050565b61086f610a8f565b600073ffffffffffffffffffffffffffffffffffffffff168173ffffffffffffffffffffffffffffffffffffffff16036108e15760006040517f1e4fbdf70000000000000000000000000000000000000000000000000000000081526004016108d89190611537565b60405180910390fd5b6108ea81610b98565b50565b600033905090565b6109028383836001610c5e565b505050565b600061091384846107e0565b90507fffffffffffffffffffffffffffffffffffffffffffffffffffffffffffffffff81146109955781811015610985578281836040517ffb8f41b200000000000000000000000000000000000000000000000000000000815260040161097c939291906117c2565b60405180910390fd5b61099484848484036000610c5e565b5b50505050565b600073ffffffffffffffffffffffffffffffffffffffff168373ffffffffffffffffffffffffffffffffffffffff1603610a0d5760006040517f96c6fd1e000000000000000000000000000000000000000000000000000000008152600401610a049190611537565b60405180910390fd5b600073ffffffffffffffffffffffffffffffffffffffff168273ffffffffffffffffffffffffffffffffffffffff1603610a7f5760006040517fec442f05000000000000000000000000000000000000000000000000000000008152600401610a769190611537565b60405180910390fd5b610a8a838383610e35565b505050565b610a976108ed565b73ffffffffffffffffffffffffffffffffffffffff16610ab56106db565b73ffffffffffffffffffffffffffffffffffffffff1614610b1457610ad86108ed565b6040517f118cdaa7000000000000000000000000000000000000000000000000000000008152600401610b0b9190611537565b60405180910390fd5b565b600073ffffffffffffffffffffffffffffffffffffffff168273ffffffffffffffffffffffffffffffffffffffff1603610b885760006040517fec442f05000000000000000000000000000000000000000000000000000000008152600401610b7f9190611537565b60405180910390fd5b610b9460008383610e35565b5050565b6000600560009054906101000a900473ffffffffffffffffffffffffffffffffffffffff16905081600560006101000a81548173ffffffffffffffffffffffffffffffffffffffff021916908373ffffffffffffffffffffffffffffffffffffffff1602179055508173ffffffffffffffffffffffffffffffffffffffff168173ffffffffffffffffffffffffffffffffffffffff167f8be0079c531659141344cd1fd0a4f28419497f9722a3daafe3b4186f6b6457e060405160405180910390a35050565b600073ffffffffffffffffffffffffffffffffffffffff168473ffffffffffffffffffffffffffffffffffffffff1603610cd05760006040517fe602df05000000000000000000000000000000000000000000000000000000008152600401610cc79190611537565b60405180910390fd5b600073ffffffffffffffffffffffffffffffffffffffff168373ffffffffffffffffffffffffffffffffffffffff1603610d425760006040517f94280d62000000000000000000000000000000000000000000000000000000008152600401610d399190611537565b60405180910390fd5b81600160008673ffffffffffffffffffffffffffffffffffffffff1673ffffffffffffffffffffffffffffffffffffffff16815260200190815260200160002060008573ffffffffffffffffffffffffffffffffffffffff1673ffffffffffffffffffffffffffffffffffffffff168152602001908152602001600020819055508015610e2f578273ffffffffffffffffffffffffffffffffffffffff168473ffffffffffffffffffffffffffffffffffffffff167f8c5be1e5ebec7d5bd14f71427d1e84f3dd0314c0f7b2291e5b200ac8c7c3b92584604051610e269190611239565b60405180910390a35b50505050565b600073ffffffffffffffffffffffffffffffffffffffff168373ffffffffffffffffffffffffffffffffffffffff1603610e87578060026000828254610e7b9190611828565b92505081905550610f5a565b60008060008573ffffffffffffffffffffffffffffffffffffffff1673ffffffffffffffffffffffffffffffffffffffff16815260200190815260200160002054905081811015610f13578381836040517fe450d38c000000000000000000000000000000000000000000000000000000008152600401610f0a939291906117c2565b60405180910390fd5b8181036000808673ffffffffffffffffffffffffffffffffffffffff1673ffffffffffffffffffffffffffffffffffffffff16815260200190815260200160002081905550505b600073ffffffffffffffffffffffffffffffffffffffff168273ffffffffffffffffffffffffffffffffffffffff1603610fa35780600260008282540392505081905550610ff0565b806000808473ffffffffffffffffffffffffffffffffffffffff1673ffffffffffffffffffffffffffffffffffffffff168152602001908152602001600020600082825401925050819055505b8173ffffffffffffffffffffffffffffffffffffffff168373ffffffffffffffffffffffffffffffffffffffff167fddf252ad1be2c89b69c2b068fc378daa952ba7f163c4a11628f55a4df523b3ef8360405161104d9190611239565b60405180910390a3505050565b600081519050919050565b600082825260208201905092915050565b60005b83811015611094578082015181840152602081019050611079565b60008484015250505050565b6000601f19601f8301169050919050565b60006110bc8261105a565b6110c68185611065565b93506110d6818560208601611076565b6110df816110a0565b840191505092915050565b6000602082019050818103600083015261110481846110b1565b905092915050565b6000604051905090565b600080fd5b600080fd5b600073ffffffffffffffffffffffffffffffffffffffff82169050919050565b600061114b82611120565b9050919050565b61115b81611140565b811461116657600080fd5b50565b60008135905061117881611152565b92915050565b6000819050919050565b6111918161117e565b811461119c57600080fd5b50565b6000813590506111ae81611188565b92915050565b600080604083850312156111cb576111ca611116565b5b60006111d985828601611169565b92505060206111ea8582860161119f565b9150509250929050565b60008115159050919050565b611209816111f4565b82525050565b60006020820190506112246000830184611200565b92915050565b6112338161117e565b82525050565b600060208201905061124e600083018461122a565b92915050565b60008060006060848603121561126d5761126c611116565b5b600061127b86828701611169565b935050602061128c86828701611169565b925050604061129d8682870161119f565b9150509250925092565b600060ff82169050919050565b6112bd816112a7565b82525050565b60006020820190506112d860008301846112b4565b92915050565b600080fd5b600080fd5b7f4e487b7100000000000000000000000000000000000000000000000000000000600052604160045260246000fd5b611320826110a0565b810181811067ffffffffffffffff8211171561133f5761133e6112e8565b5b80604052505050565b600061135261110c565b905061135e8282611317565b919050565b600067ffffffffffffffff82111561137e5761137d6112e8565b5b611387826110a0565b9050602081019050919050565b82818337600083830152505050565b60006113b66113b184611363565b611348565b9050828152602081018484840111156113d2576113d16112e3565b5b6113dd848285611394565b509392505050565b600082601f8301126113fa576113f96112de565b5b813561140a8482602086016113a3565b91505092915050565b6000806000806080858703121561142d5761142c611116565b5b600061143b87828801611169565b945050602061144c8782880161119f565b935050604085013567ffffffffffffffff81111561146d5761146c61111b565b5b611479878288016113e5565b925050606085013567ffffffffffffffff81111561149a5761149961111b565b5b6114a6878288016113e5565b91505092959194509250565b6000602082840312156114c8576114c7611116565b5b600082013567ffffffffffffffff8111156114e6576114e561111b565b5b6114f2848285016113e5565b91505092915050565b60006020828403121561151157611510611116565b5b600061151f84828501611169565b91505092915050565b61153181611140565b82525050565b600060208201905061154c6000830184611528565b92915050565b6000819050919050565b600061157761157261156d84611120565b611552565b611120565b9050919050565b60006115898261155c565b9050919050565b600061159b8261157e565b9050919050565b6115ab81611590565b82525050565b60006020820190506115c660008301846115a2565b92915050565b600080604083850312156115e3576115e2611116565b5b60006115f185828601611169565b925050602061160285828601611169565b9150509250929050565b7f4e487b7100000000000000000000000000000000000000000000000000000000600052602260045260246000fd5b6000600282049050600182168061165357607f821691505b6020821081036116665761166561160c565b5b50919050565b600081905092915050565b60006116828261105a565b61168c818561166c565b935061169c818560208601611076565b80840191505092915050565b60006116b48284611677565b915081905092915050565b7f436572746966696361746520616c726561647920757365640000000000000000600082015250565b60006116f5601883611065565b9150611700826116bf565b602082019050919050565b60006020820190508181036000830152611724816116e8565b9050919050565b611734816111f4565b811461173f57600080fd5b50565b6000815190506117518161172b565b92915050565b60006020828403121561176d5761176c611116565b5b600061177b84828501611742565b91505092915050565b60006060820190506117996000830186611528565b81810360208301526117ab81856110b1565b90506117ba604083018461122a565b949350505050565b60006060820190506117d76000830186611528565b6117e4602083018561122a565b6117f1604083018461122a565b949350505050565b7f4e487b7100000000000000000000000000000000000000000000000000000000600052601160045260246000fd5b60006118338261117e565b915061183e8361117e565b9250828201905080821115611856576118556117f9565b5b9291505056fea2646970667358221220fd7f33650ae43de529043956cbdfbcd2aa48ba631f8eea61e4f954abcb85304c64736f6c634300081c0033",
  "immutableReferences": {},
  "source": "// SPDX-License-Identifier: MIT\r\npragma solidity ^0.8.0;\r\n\r\nimport \"@openzeppelin/contracts/token/ERC20/ERC20.sol\";\r\nimport \"@openzeppelin/contracts/access/Ownable.sol\";\r\n\r\ninterface IParticipantsRegistry {\r\n    function isParticipantRegistered(address participant) external view returns (bool);\r\n    function registerParticipantFromToken(\r\n        address _participant,\r\n        string calldata _name,\r\n        uint256 _credits\r\n    ) external;\r\n}\r\n\r\ncontract GreenCreditToken is ERC20, Ownable {\r\n    mapping(string => bool) public verifiedCertificates; // Stores verified certificate IDs\r\n    IParticipantsRegistry public participantsRegistry;\r\n\r\n    constructor(address _participantsRegistry) Ownable(msg.sender) ERC20(\"GreenCreditToken\", \"GCT\") {\r\n        participantsRegistry = IParticipantsRegistry(_participantsRegistry);\r\n    }\r\n\r\n    // Mint tokens after certificate verification\r\n    function mintGreenCredits(\r\n        address to,\r\n        uint256 amount,\r\n        string memory certificateId,\r\n        string memory participantName\r\n    ) external onlyOwner {\r\n        require(!verifiedCertificates[certificateId], \"Certificate already used\");\r\n\r\n        // Register participant if not already registered\r\n        if (!participantsRegistry.isParticipantRegistered(to)) {\r\n            participantsRegistry.registerParticipantFromToken(to, participantName, amount);\r\n        }\r\n\r\n        // Mark certificate as used and mint tokens\r\n        verifiedCertificates[certificateId] = true;\r\n        _mint(to, amount);\r\n    }\r\n}\r\n",
  "sourcePath": "C:\\Users\\vaish\\Desktop\\majorproject\\contracts\\GreenCreditToken.sol",
  "compiler": {
    "name": "solc",
    "version": "0.8.28+commit.7893614a.Emscripten.clang"
  },
  "schemaVersion": "3.4.16",
  "updatedAt": "2024-12-15T23:42:34.971Z",
  "networkType": "ethereum",
  "devdoc": {
    "errors": {
      "ERC20InsufficientAllowance(address,uint256,uint256)": [
        {
          "details": "Indicates a failure with the `spender`s `allowance`. Used in transfers.",
          "params": {
            "allowance": "Amount of tokens a `spender` is allowed to operate with.",
            "needed": "Minimum amount required to perform a transfer.",
            "spender": "Address that may be allowed to operate on tokens without being their owner."
          }
        }
      ],
      "ERC20InsufficientBalance(address,uint256,uint256)": [
        {
          "details": "Indicates an error related to the current `balance` of a `sender`. Used in transfers.",
          "params": {
            "balance": "Current balance for the interacting account.",
            "needed": "Minimum amount required to perform a transfer.",
            "sender": "Address whose tokens are being transferred."
          }
        }
      ],
      "ERC20InvalidApprover(address)": [
        {
          "details": "Indicates a failure with the `approver` of a token to be approved. Used in approvals.",
          "params": {
            "approver": "Address initiating an approval operation."
          }
        }
      ],
      "ERC20InvalidReceiver(address)": [
        {
          "details": "Indicates a failure with the token `receiver`. Used in transfers.",
          "params": {
            "receiver": "Address to which tokens are being transferred."
          }
        }
      ],
      "ERC20InvalidSender(address)": [
        {
          "details": "Indicates a failure with the token `sender`. Used in transfers.",
          "params": {
            "sender": "Address whose tokens are being transferred."
          }
        }
      ],
      "ERC20InvalidSpender(address)": [
        {
          "details": "Indicates a failure with the `spender` to be approved. Used in approvals.",
          "params": {
            "spender": "Address that may be allowed to operate on tokens without being their owner."
          }
        }
      ],
      "OwnableInvalidOwner(address)": [
        {
          "details": "The owner is not a valid owner account. (eg. `address(0)`)"
        }
      ],
      "OwnableUnauthorizedAccount(address)": [
        {
          "details": "The caller account is not authorized to perform an operation."
        }
      ]
    },
    "events": {
      "Approval(address,address,uint256)": {
        "details": "Emitted when the allowance of a `spender` for an `owner` is set by a call to {approve}. `value` is the new allowance."
      },
      "Transfer(address,address,uint256)": {
        "details": "Emitted when `value` tokens are moved from one account (`from`) to another (`to`). Note that `value` may be zero."
      }
    },
    "kind": "dev",
    "methods": {
      "allowance(address,address)": {
        "details": "See {IERC20-allowance}."
      },
      "approve(address,uint256)": {
        "details": "See {IERC20-approve}. NOTE: If `value` is the maximum `uint256`, the allowance is not updated on `transferFrom`. This is semantically equivalent to an infinite approval. Requirements: - `spender` cannot be the zero address."
      },
      "balanceOf(address)": {
        "details": "See {IERC20-balanceOf}."
      },
      "decimals()": {
        "details": "Returns the number of decimals used to get its user representation. For example, if `decimals` equals `2`, a balance of `505` tokens should be displayed to a user as `5.05` (`505 / 10 ** 2`). Tokens usually opt for a value of 18, imitating the relationship between Ether and Wei. This is the default value returned by this function, unless it's overridden. NOTE: This information is only used for _display_ purposes: it in no way affects any of the arithmetic of the contract, including {IERC20-balanceOf} and {IERC20-transfer}."
      },
      "name()": {
        "details": "Returns the name of the token."
      },
      "owner()": {
        "details": "Returns the address of the current owner."
      },
      "renounceOwnership()": {
        "details": "Leaves the contract without owner. It will not be possible to call `onlyOwner` functions. Can only be called by the current owner. NOTE: Renouncing ownership will leave the contract without an owner, thereby disabling any functionality that is only available to the owner."
      },
      "symbol()": {
        "details": "Returns the symbol of the token, usually a shorter version of the name."
      },
      "totalSupply()": {
        "details": "See {IERC20-totalSupply}."
      },
      "transfer(address,uint256)": {
        "details": "See {IERC20-transfer}. Requirements: - `to` cannot be the zero address. - the caller must have a balance of at least `value`."
      },
      "transferFrom(address,address,uint256)": {
        "details": "See {IERC20-transferFrom}. Skips emitting an {Approval} event indicating an allowance update. This is not required by the ERC. See {xref-ERC20-_approve-address-address-uint256-bool-}[_approve]. NOTE: Does not update the allowance if the current allowance is the maximum `uint256`. Requirements: - `from` and `to` cannot be the zero address. - `from` must have a balance of at least `value`. - the caller must have allowance for ``from``'s tokens of at least `value`."
      },
      "transferOwnership(address)": {
        "details": "Transfers ownership of the contract to a new account (`newOwner`). Can only be called by the current owner."
      }
    },
    "version": 1
  },
  "userdoc": {
    "kind": "user",
    "methods": {},
    "version": 1
  }
}