{
  "contractName": "GreenCreditMarketplace",
  "abi": [
    {
      "anonymous": false,
      "inputs": [
        {
          "indexed": false,
          "internalType": "uint256",
          "name": "listingId",
          "type": "uint256"
        },
        {
          "indexed": false,
          "internalType": "address",
          "name": "seller",
          "type": "address"
        },
        {
          "indexed": false,
          "internalType": "uint256",
          "name": "tokenAmount",
          "type": "uint256"
        },
        {
          "indexed": false,
          "internalType": "uint256",
          "name": "ethPrice",
          "type": "uint256"
        }
      ],
      "name": "ListingAdded",
      "type": "event"
    },
    {
      "anonymous": false,
      "inputs": [
        {
          "indexed": false,
          "internalType": "uint256",
          "name": "listingId",
          "type": "uint256"
        },
        {
          "indexed": false,
          "internalType": "address",
          "name": "buyer",
          "type": "address"
        },
        {
          "indexed": false,
          "internalType": "uint256",
          "name": "amountPaid",
          "type": "uint256"
        }
      ],
      "name": "PurchaseMade",
      "type": "event"
    },
    {
      "inputs": [],
      "name": "listingCount",
      "outputs": [
        {
          "internalType": "uint256",
          "name": "",
          "type": "uint256"
        }
      ],
      "stateMutability": "view",
      "type": "function"
    },
    {
      "inputs": [
        {
          "internalType": "uint256",
          "name": "",
          "type": "uint256"
        }
      ],
      "name": "listings",
      "outputs": [
        {
          "internalType": "address",
          "name": "seller",
          "type": "address"
        },
        {
          "internalType": "uint256",
          "name": "tokenAmount",
          "type": "uint256"
        },
        {
          "internalType": "uint256",
          "name": "ethPrice",
          "type": "uint256"
        },
        {
          "internalType": "bool",
          "name": "isActive",
          "type": "bool"
        }
      ],
      "stateMutability": "view",
      "type": "function"
    },
    {
      "inputs": [
        {
          "internalType": "uint256",
          "name": "tokenAmount",
          "type": "uint256"
        },
        {
          "internalType": "uint256",
          "name": "ethPrice",
          "type": "uint256"
        }
      ],
      "name": "addListing",
      "outputs": [],
      "stateMutability": "nonpayable",
      "type": "function"
    },
    {
      "inputs": [
        {
          "internalType": "uint256",
          "name": "listingId",
          "type": "uint256"
        }
      ],
      "name": "buyCredits",
      "outputs": [],
      "stateMutability": "payable",
      "type": "function"
    },
    {
      "inputs": [],
      "name": "fetchListings",
      "outputs": [
        {
          "components": [
            {
              "internalType": "address",
              "name": "seller",
              "type": "address"
            },
            {
              "internalType": "uint256",
              "name": "tokenAmount",
              "type": "uint256"
            },
            {
              "internalType": "uint256",
              "name": "ethPrice",
              "type": "uint256"
            },
            {
              "internalType": "bool",
              "name": "isActive",
              "type": "bool"
            }
          ],
          "internalType": "struct GreenCreditMarketplace.Listing[]",
          "name": "",
          "type": "tuple[]"
        }
      ],
      "stateMutability": "view",
      "type": "function"
    }
  ],
  "bytecode": "0x6080604052348015600f57600080fd5b50610b3c8061001f6000396000f3fe608060405260043610610067576000357c0100000000000000000000000000000000000000000000000000000000900480630c4dfe3f1461006c578063836cf6e914610088578063a80f99ec146100b1578063a9b07c26146100dc578063de74e57b14610107575b600080fd5b61008660048036038101906100819190610641565b610147565b005b34801561009457600080fd5b506100af60048036038101906100aa919061066e565b6102bc565b005b3480156100bd57600080fd5b506100c66103e3565b6040516100d3919061081d565b60405180910390f35b3480156100e857600080fd5b506100f1610563565b6040516100fe919061084e565b60405180910390f35b34801561011357600080fd5b5061012e60048036038101906101299190610641565b610569565b60405161013e9493929190610887565b60405180910390f35b600080600083815260200190815260200160002090508060030160009054906101000a900460ff166101ae576040517f08c379a00000000000000000000000000000000000000000000000000000000081526004016101a590610929565b60405180910390fd5b80600201543410156101f5576040517f08c379a00000000000000000000000000000000000000000000000000000000081526004016101ec90610995565b60405180910390fd5b8060000160009054906101000a900473ffffffffffffffffffffffffffffffffffffffff1673ffffffffffffffffffffffffffffffffffffffff166108fc349081150290604051600060405180830381858888f1935050505015801561025f573d6000803e3d6000fd5b5060008160030160006101000a81548160ff0219169083151502179055507fc67dda0e4492655637fd5a612f71194cbdfda4372b88edc38d595bd2733a3f2d8233346040516102b0939291906109b5565b60405180910390a15050565b600160008154809291906102cf90610a1b565b919050555060405180608001604052803373ffffffffffffffffffffffffffffffffffffffff16815260200183815260200182815260200160011515815250600080600154815260200190815260200160002060008201518160000160006101000a81548173ffffffffffffffffffffffffffffffffffffffff021916908373ffffffffffffffffffffffffffffffffffffffff160217905550602082015181600101556040820151816002015560608201518160030160006101000a81548160ff0219169083151502179055509050507f570264dda2b3a2b9d6d734ccc18c015eea36a34be362643a9b3e113426dd1e606001543384846040516103d79493929190610a63565b60405180910390a15050565b6060600060015467ffffffffffffffff81111561040357610402610aa8565b5b60405190808252806020026020018201604052801561043c57816020015b6104296105c6565b8152602001906001900390816104215790505b509050600080600190505b600154811161055a5760008082815260200190815260200160002060030160009054906101000a900460ff1615610547576000808281526020019081526020016000206040518060800160405290816000820160009054906101000a900473ffffffffffffffffffffffffffffffffffffffff1673ffffffffffffffffffffffffffffffffffffffff1673ffffffffffffffffffffffffffffffffffffffff16815260200160018201548152602001600282015481526020016003820160009054906101000a900460ff16151515158152505083838151811061052d5761052c610ad7565b5b6020026020010181905250818061054390610a1b565b9250505b808061055290610a1b565b915050610447565b50819250505090565b60015481565b60006020528060005260406000206000915090508060000160009054906101000a900473ffffffffffffffffffffffffffffffffffffffff16908060010154908060020154908060030160009054906101000a900460ff16905084565b6040518060800160405280600073ffffffffffffffffffffffffffffffffffffffff16815260200160008152602001600081526020016000151581525090565b600080fd5b6000819050919050565b61061e8161060b565b811461062957600080fd5b50565b60008135905061063b81610615565b92915050565b60006020828403121561065757610656610606565b5b60006106658482850161062c565b91505092915050565b6000806040838503121561068557610684610606565b5b60006106938582860161062c565b92505060206106a48582860161062c565b9150509250929050565b600081519050919050565b600082825260208201905092915050565b6000819050602082019050919050565b600073ffffffffffffffffffffffffffffffffffffffff82169050919050565b6000610705826106da565b9050919050565b610715816106fa565b82525050565b6107248161060b565b82525050565b60008115159050919050565b61073f8161072a565b82525050565b60808201600082015161075b600085018261070c565b50602082015161076e602085018261071b565b506040820151610781604085018261071b565b5060608201516107946060850182610736565b50505050565b60006107a68383610745565b60808301905092915050565b6000602082019050919050565b60006107ca826106ae565b6107d481856106b9565b93506107df836106ca565b8060005b838110156108105781516107f7888261079a565b9750610802836107b2565b9250506001810190506107e3565b5085935050505092915050565b6000602082019050818103600083015261083781846107bf565b905092915050565b6108488161060b565b82525050565b6000602082019050610863600083018461083f565b92915050565b610872816106fa565b82525050565b6108818161072a565b82525050565b600060808201905061089c6000830187610869565b6108a9602083018661083f565b6108b6604083018561083f565b6108c36060830184610878565b95945050505050565b600082825260208201905092915050565b7f4c697374696e67206973206e6f74206163746976650000000000000000000000600082015250565b60006109136015836108cc565b915061091e826108dd565b602082019050919050565b6000602082019050818103600083015261094281610906565b9050919050565b7f496e73756666696369656e74204554482073656e740000000000000000000000600082015250565b600061097f6015836108cc565b915061098a82610949565b602082019050919050565b600060208201905081810360008301526109ae81610972565b9050919050565b60006060820190506109ca600083018661083f565b6109d76020830185610869565b6109e4604083018461083f565b949350505050565b7f4e487b7100000000000000000000000000000000000000000000000000000000600052601160045260246000fd5b6000610a268261060b565b91507fffffffffffffffffffffffffffffffffffffffffffffffffffffffffffffffff8203610a5857610a576109ec565b5b600182019050919050565b6000608082019050610a78600083018761083f565b610a856020830186610869565b610a92604083018561083f565b610a9f606083018461083f565b95945050505050565b7f4e487b7100000000000000000000000000000000000000000000000000000000600052604160045260246000fd5b7f4e487b7100000000000000000000000000000000000000000000000000000000600052603260045260246000fdfea264697066735822122002b37a8b98d6fb9e3cb73ef40301540a0ea7b2821167aeb84094d639154a1cbf64736f6c634300081c0033",
  "immutableReferences": {},
  "source": "// SPDX-License-Identifier: MIT\r\npragma solidity ^0.8.0;\r\n\r\ncontract GreenCreditMarketplace {\r\n    struct Listing {\r\n        address seller;\r\n        uint256 tokenAmount;\r\n        uint256 ethPrice;\r\n        bool isActive;\r\n    }\r\n\r\n    mapping(uint256 => Listing) public listings;\r\n    uint256 public listingCount;\r\n\r\n    event ListingAdded(uint256 listingId, address seller, uint256 tokenAmount, uint256 ethPrice);\r\n    event PurchaseMade(uint256 listingId, address buyer, uint256 amountPaid);\r\n\r\n    function addListing(uint256 tokenAmount, uint256 ethPrice) public {\r\n        listingCount++;\r\n        listings[listingCount] = Listing(msg.sender, tokenAmount, ethPrice, true);\r\n\r\n        emit ListingAdded(listingCount, msg.sender, tokenAmount, ethPrice);\r\n    }\r\n\r\n    function buyCredits(uint256 listingId) public payable {\r\n        Listing storage listing = listings[listingId];\r\n\r\n        require(listing.isActive, \"Listing is not active\");\r\n        require(msg.value >= listing.ethPrice, \"Insufficient ETH sent\");\r\n\r\n        // Transfer ETH to the seller\r\n        payable(listing.seller).transfer(msg.value);\r\n\r\n        // Mark listing as inactive\r\n        listing.isActive = false;\r\n\r\n        emit PurchaseMade(listingId, msg.sender, msg.value);\r\n    }\r\n\r\n    function fetchListings() public view returns (Listing[] memory) {\r\n        Listing[] memory activeListings = new Listing[](listingCount);\r\n        uint256 count = 0;\r\n\r\n        for (uint256 i = 1; i <= listingCount; i++) {\r\n            if (listings[i].isActive) {\r\n                activeListings[count] = listings[i];\r\n                count++;\r\n            }\r\n        }\r\n\r\n        return activeListings;\r\n    }\r\n}\r\n",
  "sourcePath": "C:\\Users\\vaish\\Desktop\\majorproject\\contracts\\GreenCreditAMM.sol",
  "compiler": {
    "name": "solc",
    "version": "0.8.28+commit.7893614a.Emscripten.clang"
  },
  "schemaVersion": "3.4.16",
  "updatedAt": "2024-12-15T23:42:30.200Z",
  "devdoc": {
    "kind": "dev",
    "methods": {},
    "version": 1
  },
  "userdoc": {
    "kind": "user",
    "methods": {},
    "version": 1
  }
}