{
  "contractName": "GreenCreditAMM",
  "abi": [
    {
      "inputs": [
        {
          "internalType": "address",
          "name": "_greenToken",
          "type": "address"
        }
      ],
      "stateMutability": "nonpayable",
      "type": "constructor"
    },
    {
      "anonymous": false,
      "inputs": [
        {
          "indexed": true,
          "internalType": "address",
          "name": "user",
          "type": "address"
        },
        {
          "indexed": false,
          "internalType": "uint256",
          "name": "ethAmount",
          "type": "uint256"
        },
        {
          "indexed": false,
          "internalType": "uint256",
          "name": "tokenAmount",
          "type": "uint256"
        }
      ],
      "name": "EthToTokenSwap",
      "type": "event"
    },
    {
      "anonymous": false,
      "inputs": [
        {
          "indexed": true,
          "internalType": "address",
          "name": "user",
          "type": "address"
        },
        {
          "indexed": false,
          "internalType": "uint256",
          "name": "ethAmount",
          "type": "uint256"
        },
        {
          "indexed": false,
          "internalType": "uint256",
          "name": "tokenAmount",
          "type": "uint256"
        }
      ],
      "name": "LiquidityAdded",
      "type": "event"
    },
    {
      "anonymous": false,
      "inputs": [
        {
          "indexed": true,
          "internalType": "address",
          "name": "user",
          "type": "address"
        },
        {
          "indexed": false,
          "internalType": "uint256",
          "name": "ethAmount",
          "type": "uint256"
        },
        {
          "indexed": false,
          "internalType": "uint256",
          "name": "tokenAmount",
          "type": "uint256"
        }
      ],
      "name": "LiquidityRemoved",
      "type": "event"
    },
    {
      "anonymous": false,
      "inputs": [
        {
          "indexed": true,
          "internalType": "address",
          "name": "user",
          "type": "address"
        },
        {
          "indexed": false,
          "internalType": "uint256",
          "name": "tokenAmount",
          "type": "uint256"
        },
        {
          "indexed": false,
          "internalType": "uint256",
          "name": "ethAmount",
          "type": "uint256"
        }
      ],
      "name": "TokenToEthSwap",
      "type": "event"
    },
    {
      "inputs": [],
      "name": "greenToken",
      "outputs": [
        {
          "internalType": "contract IERC20",
          "name": "",
          "type": "address"
        }
      ],
      "stateMutability": "view",
      "type": "function",
      "constant": true
    },
    {
      "inputs": [
        {
          "internalType": "address",
          "name": "",
          "type": "address"
        }
      ],
      "name": "liquidity",
      "outputs": [
        {
          "internalType": "uint256",
          "name": "",
          "type": "uint256"
        }
      ],
      "stateMutability": "view",
      "type": "function",
      "constant": true
    },
    {
      "inputs": [],
      "name": "totalLiquidity",
      "outputs": [
        {
          "internalType": "uint256",
          "name": "",
          "type": "uint256"
        }
      ],
      "stateMutability": "view",
      "type": "function",
      "constant": true
    },
    {
      "inputs": [
        {
          "internalType": "uint256",
          "name": "tokenAmount",
          "type": "uint256"
        }
      ],
      "name": "addLiquidity",
      "outputs": [],
      "stateMutability": "payable",
      "type": "function",
      "payable": true
    },
    {
      "inputs": [
        {
          "internalType": "uint256",
          "name": "ethAmount",
          "type": "uint256"
        },
        {
          "internalType": "uint256",
          "name": "tokenAmount",
          "type": "uint256"
        }
      ],
      "name": "removeLiquidity",
      "outputs": [],
      "stateMutability": "nonpayable",
      "type": "function"
    },
    {
      "inputs": [
        {
          "internalType": "uint256",
          "name": "minTokens",
          "type": "uint256"
        }
      ],
      "name": "ethToToken",
      "outputs": [],
      "stateMutability": "payable",
      "type": "function",
      "payable": true
    },
    {
      "inputs": [
        {
          "internalType": "uint256",
          "name": "tokenAmount",
          "type": "uint256"
        },
        {
          "internalType": "uint256",
          "name": "minEth",
          "type": "uint256"
        }
      ],
      "name": "tokenToEth",
      "outputs": [],
      "stateMutability": "nonpayable",
      "type": "function"
    },
    {
      "inputs": [],
      "name": "getReserves",
      "outputs": [
        {
          "internalType": "uint256",
          "name": "ethReserve",
          "type": "uint256"
        },
        {
          "internalType": "uint256",
          "name": "tokenReserve",
          "type": "uint256"
        }
      ],
      "stateMutability": "view",
      "type": "function",
      "constant": true
    }
  ],
  "bytecode": "0x608060405234801561001057600080fd5b50604051611517380380611517833981810160405281019061003291906100db565b806000806101000a81548173ffffffffffffffffffffffffffffffffffffffff021916908373ffffffffffffffffffffffffffffffffffffffff16021790555050610108565b600080fd5b600073ffffffffffffffffffffffffffffffffffffffff82169050919050565b60006100a88261007d565b9050919050565b6100b88161009d565b81146100c357600080fd5b50565b6000815190506100d5816100af565b92915050565b6000602082840312156100f1576100f0610078565b5b60006100ff848285016100c6565b91505092915050565b611400806101176000396000f3fe608060405260043610610098576000357c01000000000000000000000000000000000000000000000000000000009004806363ffeafd1161006b57806363ffeafd1461013b5780639d7de6b314610164578063b8c876b11461018d578063e27a2489146101ca57610098565b806302b32af51461009d5780630902f1ac146100c857806315770f92146100f457806351c6590a1461011f575b600080fd5b3480156100a957600080fd5b506100b26101e6565b6040516100bf9190610db2565b60405180910390f35b3480156100d457600080fd5b506100dd61020a565b6040516100eb929190610de6565b60405180910390f35b34801561010057600080fd5b506101096102e3565b6040516101169190610e0f565b60405180910390f35b61013960048036038101906101349190610e5b565b6102e9565b005b34801561014757600080fd5b50610162600480360381019061015d9190610e88565b6104f5565b005b34801561017057600080fd5b5061018b60048036038101906101869190610e88565b6107c3565b005b34801561019957600080fd5b506101b460048036038101906101af9190610f06565b610a97565b6040516101c19190610e0f565b60405180910390f35b6101e460048036038101906101df9190610e5b565b610aaf565b005b60008054906101000a900473ffffffffffffffffffffffffffffffffffffffff1681565b6000803073ffffffffffffffffffffffffffffffffffffffff1631915060008054906101000a900473ffffffffffffffffffffffffffffffffffffffff1673ffffffffffffffffffffffffffffffffffffffff166370a08231306040518263ffffffff167c010000000000000000000000000000000000000000000000000000000002815260040161029c9190610f42565b602060405180830381865afa1580156102b9573d6000803e3d6000fd5b505050506040513d601f19601f820116820180604052508101906102dd9190610f72565b90509091565b60015481565b6000341180156102f95750600081115b610338576040517f08c379a000000000000000000000000000000000000000000000000000000000815260040161032f90610ffc565b60405180910390fd5b60008054906101000a900473ffffffffffffffffffffffffffffffffffffffff1673ffffffffffffffffffffffffffffffffffffffff166323b872dd3330846040518463ffffffff167c01000000000000000000000000000000000000000000000000000000000281526004016103b19392919061101c565b6020604051808303816000875af11580156103d0573d6000803e3d6000fd5b505050506040513d601f19601f820116820180604052508101906103f4919061108b565b610433576040517f08c379a000000000000000000000000000000000000000000000000000000000815260040161042a90611104565b60405180910390fd5b34600260003373ffffffffffffffffffffffffffffffffffffffff1673ffffffffffffffffffffffffffffffffffffffff16815260200190815260200160002060008282546104829190611153565b92505081905550346001600082825461049b9190611153565b925050819055503373ffffffffffffffffffffffffffffffffffffffff167fac1d76749e5447b7b16f5ab61447e1bd502f3bb4807af3b28e620d1700a6ee4534836040516104ea929190610de6565b60405180910390a250565b60008060009054906101000a900473ffffffffffffffffffffffffffffffffffffffff1673ffffffffffffffffffffffffffffffffffffffff166370a08231306040518263ffffffff167c010000000000000000000000000000000000000000000000000000000002815260040161056d9190610f42565b602060405180830381865afa15801561058a573d6000803e3d6000fd5b505050506040513d601f19601f820116820180604052508101906105ae9190610f72565b905060003073ffffffffffffffffffffffffffffffffffffffff1631905060008282866105db9190611187565b6105e591906111f8565b90508381101561062a576040517f08c379a000000000000000000000000000000000000000000000000000000000815260040161062190611275565b60405180910390fd5b60008054906101000a900473ffffffffffffffffffffffffffffffffffffffff1673ffffffffffffffffffffffffffffffffffffffff166323b872dd3330886040518463ffffffff167c01000000000000000000000000000000000000000000000000000000000281526004016106a39392919061101c565b6020604051808303816000875af11580156106c2573d6000803e3d6000fd5b505050506040513d601f19601f820116820180604052508101906106e6919061108b565b610725576040517f08c379a000000000000000000000000000000000000000000000000000000000815260040161071c90611104565b60405180910390fd5b3373ffffffffffffffffffffffffffffffffffffffff166108fc829081150290604051600060405180830381858888f1935050505015801561076b573d6000803e3d6000fd5b503373ffffffffffffffffffffffffffffffffffffffff167f472303b1e7ca7d00fb77f255c0a8c577f9ca4264c0306aaed3ff18e831523a6d86836040516107b4929190610de6565b60405180910390a25050505050565b6000821180156107d35750600081115b610812576040517f08c379a0000000000000000000000000000000000000000000000000000000008152600401610809906112e1565b60405180910390fd5b81600260003373ffffffffffffffffffffffffffffffffffffffff1673ffffffffffffffffffffffffffffffffffffffff168152602001908152602001600020541015610894576040517f08c379a000000000000000000000000000000000000000000000000000000000815260040161088b9061134d565b60405180910390fd5b81600260003373ffffffffffffffffffffffffffffffffffffffff1673ffffffffffffffffffffffffffffffffffffffff16815260200190815260200160002060008282546108e3919061136d565b9250508190555081600160008282546108fc919061136d565b925050819055503373ffffffffffffffffffffffffffffffffffffffff166108fc839081150290604051600060405180830381858888f19350505050158015610949573d6000803e3d6000fd5b5060008054906101000a900473ffffffffffffffffffffffffffffffffffffffff1673ffffffffffffffffffffffffffffffffffffffff1663a9059cbb33836040518363ffffffff167c01000000000000000000000000000000000000000000000000000000000281526004016109c19291906113a1565b6020604051808303816000875af11580156109e0573d6000803e3d6000fd5b505050506040513d601f19601f82011682018060405250810190610a04919061108b565b610a43576040517f08c379a0000000000000000000000000000000000000000000000000000000008152600401610a3a90611104565b60405180910390fd5b3373ffffffffffffffffffffffffffffffffffffffff167f96cd817c6329656790ef8fba7675405193677d39619571282f5e21f3a98cd0598383604051610a8b929190610de6565b60405180910390a25050565b60026020528060005260406000206000915090505481565b60008060009054906101000a900473ffffffffffffffffffffffffffffffffffffffff1673ffffffffffffffffffffffffffffffffffffffff166370a08231306040518263ffffffff167c0100000000000000000000000000000000000000000000000000000000028152600401610b279190610f42565b602060405180830381865afa158015610b44573d6000803e3d6000fd5b505050506040513d601f19601f82011682018060405250810190610b689190610f72565b905060003073ffffffffffffffffffffffffffffffffffffffff163190506000818334610b959190611187565b610b9f91906111f8565b905083811015610be4576040517f08c379a0000000000000000000000000000000000000000000000000000000008152600401610bdb90611275565b60405180910390fd5b60008054906101000a900473ffffffffffffffffffffffffffffffffffffffff1673ffffffffffffffffffffffffffffffffffffffff1663a9059cbb33836040518363ffffffff167c0100000000000000000000000000000000000000000000000000000000028152600401610c5b9291906113a1565b6020604051808303816000875af1158015610c7a573d6000803e3d6000fd5b505050506040513d601f19601f82011682018060405250810190610c9e919061108b565b610cdd576040517f08c379a0000000000000000000000000000000000000000000000000000000008152600401610cd490611104565b60405180910390fd5b3373ffffffffffffffffffffffffffffffffffffffff167f6d4870e9281c01ea54a4420c8684ac713b77f0c590b40c4b1fbf4c6ba892ccea3483604051610d25929190610de6565b60405180910390a250505050565b600073ffffffffffffffffffffffffffffffffffffffff82169050919050565b6000819050919050565b6000610d78610d73610d6e84610d33565b610d53565b610d33565b9050919050565b6000610d8a82610d5d565b9050919050565b6000610d9c82610d7f565b9050919050565b610dac81610d91565b82525050565b6000602082019050610dc76000830184610da3565b92915050565b6000819050919050565b610de081610dcd565b82525050565b6000604082019050610dfb6000830185610dd7565b610e086020830184610dd7565b9392505050565b6000602082019050610e246000830184610dd7565b92915050565b600080fd5b610e3881610dcd565b8114610e4357600080fd5b50565b600081359050610e5581610e2f565b92915050565b600060208284031215610e7157610e70610e2a565b5b6000610e7f84828501610e46565b91505092915050565b60008060408385031215610e9f57610e9e610e2a565b5b6000610ead85828601610e46565b9250506020610ebe85828601610e46565b9150509250929050565b6000610ed382610d33565b9050919050565b610ee381610ec8565b8114610eee57600080fd5b50565b600081359050610f0081610eda565b92915050565b600060208284031215610f1c57610f1b610e2a565b5b6000610f2a84828501610ef1565b91505092915050565b610f3c81610ec8565b82525050565b6000602082019050610f576000830184610f33565b92915050565b600081519050610f6c81610e2f565b92915050565b600060208284031215610f8857610f87610e2a565b5b6000610f9684828501610f5d565b91505092915050565b600082825260208201905092915050565b7f50726f766964652045544820616e6420546f6b656e7300000000000000000000600082015250565b6000610fe6601683610f9f565b9150610ff182610fb0565b602082019050919050565b6000602082019050818103600083015261101581610fd9565b9050919050565b60006060820190506110316000830186610f33565b61103e6020830185610f33565b61104b6040830184610dd7565b949350505050565b60008115159050919050565b61106881611053565b811461107357600080fd5b50565b6000815190506110858161105f565b92915050565b6000602082840312156110a1576110a0610e2a565b5b60006110af84828501611076565b91505092915050565b7f546f6b656e207472616e73666572206661696c65640000000000000000000000600082015250565b60006110ee601583610f9f565b91506110f9826110b8565b602082019050919050565b6000602082019050818103600083015261111d816110e1565b9050919050565b7f4e487b7100000000000000000000000000000000000000000000000000000000600052601160045260246000fd5b600061115e82610dcd565b915061116983610dcd565b925082820190508082111561118157611180611124565b5b92915050565b600061119282610dcd565b915061119d83610dcd565b92508282026111ab81610dcd565b915082820484148315176111c2576111c1611124565b5b5092915050565b7f4e487b7100000000000000000000000000000000000000000000000000000000600052601260045260246000fd5b600061120382610dcd565b915061120e83610dcd565b92508261121e5761121d6111c9565b5b828204905092915050565b7f496e73756666696369656e74206f757470757400000000000000000000000000600082015250565b600061125f601383610f9f565b915061126a82611229565b602082019050919050565b6000602082019050818103600083015261128e81611252565b9050919050565b7f496e76616c696420616d6f756e74730000000000000000000000000000000000600082015250565b60006112cb600f83610f9f565b91506112d682611295565b602082019050919050565b600060208201905081810360008301526112fa816112be565b9050919050565b7f496e73756666696369656e74206c697175696469747900000000000000000000600082015250565b6000611337601683610f9f565b915061134282611301565b602082019050919050565b600060208201905081810360008301526113668161132a565b9050919050565b600061137882610dcd565b915061138383610dcd565b925082820390508181111561139b5761139a611124565b5b92915050565b60006040820190506113b66000830185610f33565b6113c36020830184610dd7565b939250505056fea26469706673582212202c9967157d36c113082fdcb1fa7c4a8a66316e89b2faba2c708eb1d4b499c28f64736f6c634300081c0033",
  "immutableReferences": {},
  "source": "// SPDX-License-Identifier: MIT\r\npragma solidity ^0.8.0;\r\n\r\nimport \"@openzeppelin/contracts/token/ERC20/IERC20.sol\";\r\nimport \"./GreenCreditToken.sol\";\r\n\r\ncontract GreenCreditAMM {\r\n    IERC20 public greenToken;  // ERC20 token representing green credits\r\n\r\n    uint256 public totalLiquidity;  // Total liquidity in the contract\r\n    mapping(address => uint256) public liquidity;\r\n\r\n    event LiquidityAdded(address indexed user, uint256 ethAmount, uint256 tokenAmount);\r\n    event LiquidityRemoved(address indexed user, uint256 ethAmount, uint256 tokenAmount);\r\n    event EthToTokenSwap(address indexed user, uint256 ethAmount, uint256 tokenAmount);\r\n    event TokenToEthSwap(address indexed user, uint256 tokenAmount, uint256 ethAmount);\r\n\r\n    constructor(address _greenToken) {\r\n        greenToken = IERC20(_greenToken);\r\n    }\r\n\r\n    // Add liquidity to the pool (ETH + GreenCreditTokens)\r\n    function addLiquidity(uint256 tokenAmount) external payable {\r\n        require(msg.value > 0 && tokenAmount > 0, \"Provide ETH and Tokens\");\r\n        require(greenToken.transferFrom(msg.sender, address(this), tokenAmount), \"Token transfer failed\");\r\n\r\n        // Update liquidity balance\r\n        liquidity[msg.sender] += msg.value;\r\n        totalLiquidity += msg.value;\r\n\r\n        emit LiquidityAdded(msg.sender, msg.value, tokenAmount);\r\n    }\r\n\r\n    // Remove liquidity from the pool\r\n    function removeLiquidity(uint256 ethAmount, uint256 tokenAmount) external {\r\n        require(ethAmount > 0 && tokenAmount > 0, \"Invalid amounts\");\r\n        require(liquidity[msg.sender] >= ethAmount, \"Insufficient liquidity\");\r\n\r\n        // Update liquidity balance\r\n        liquidity[msg.sender] -= ethAmount;\r\n        totalLiquidity -= ethAmount;\r\n\r\n        // Transfer ETH and tokens back to the user\r\n        payable(msg.sender).transfer(ethAmount);\r\n        require(greenToken.transfer(msg.sender, tokenAmount), \"Token transfer failed\");\r\n\r\n        emit LiquidityRemoved(msg.sender, ethAmount, tokenAmount);\r\n    }\r\n\r\n    // Swap ETH for GreenCreditToken (Minting)\r\n    function ethToToken(uint256 minTokens) external payable {\r\n        uint256 tokenReserve = greenToken.balanceOf(address(this));\r\n        uint256 ethReserve = address(this).balance;\r\n\r\n        uint256 tokensOut = (msg.value * tokenReserve) / ethReserve;\r\n        require(tokensOut >= minTokens, \"Insufficient output\");\r\n\r\n        require(greenToken.transfer(msg.sender, tokensOut), \"Token transfer failed\");\r\n\r\n        emit EthToTokenSwap(msg.sender, msg.value, tokensOut);\r\n    }\r\n\r\n    // Swap GreenCreditToken for ETH (Burning)\r\n    function tokenToEth(uint256 tokenAmount, uint256 minEth) external {\r\n        uint256 tokenReserve = greenToken.balanceOf(address(this));\r\n        uint256 ethReserve = address(this).balance;\r\n\r\n        uint256 ethOut = (tokenAmount * ethReserve) / tokenReserve;\r\n        require(ethOut >= minEth, \"Insufficient output\");\r\n\r\n        require(greenToken.transferFrom(msg.sender, address(this), tokenAmount), \"Token transfer failed\");\r\n        payable(msg.sender).transfer(ethOut);\r\n\r\n        emit TokenToEthSwap(msg.sender, tokenAmount, ethOut);\r\n    }\r\n\r\n    // View current reserves of ETH and GreenCreditTokens\r\n    function getReserves() external view returns (uint256 ethReserve, uint256 tokenReserve) {\r\n        ethReserve = address(this).balance;\r\n        tokenReserve = greenToken.balanceOf(address(this));\r\n    }\r\n}\r\n",
  "sourcePath": "C:\\Users\\vaish\\Desktop\\majorproject\\contracts\\GreenCreditAMM.sol",
  "compiler": {
    "name": "solc",
    "version": "0.8.28+commit.7893614a.Emscripten.clang"
  },
  "schemaVersion": "3.4.16",
  "updatedAt": "2024-12-15T23:42:35.237Z",
  "networkType": "ethereum",
  "devdoc": {
    "kind": "dev",
    "methods": {},
    "version": 1
  },
  "userdoc": {
    "kind": "user",
    "methods": {},
    "version": 1
  }
}