{
  "contractName": "GreenCreditAMM",
  "abi": [
    {
      "inputs": [
        {
          "internalType": "address",
          "name": "_greenToken",
          "type": "address"
        }
      ],
      "stateMutability": "nonpayable",
      "type": "constructor"
    },
    {
      "inputs": [],
      "name": "greenToken",
      "outputs": [
        {
          "internalType": "contract IERC20",
          "name": "",
          "type": "address"
        }
      ],
      "stateMutability": "view",
      "type": "function",
      "constant": true
    },
    {
      "inputs": [
        {
          "internalType": "address",
          "name": "",
          "type": "address"
        }
      ],
      "name": "liquidity",
      "outputs": [
        {
          "internalType": "uint256",
          "name": "",
          "type": "uint256"
        }
      ],
      "stateMutability": "view",
      "type": "function",
      "constant": true
    },
    {
      "inputs": [],
      "name": "totalLiquidity",
      "outputs": [
        {
          "internalType": "uint256",
          "name": "",
          "type": "uint256"
        }
      ],
      "stateMutability": "view",
      "type": "function",
      "constant": true
    },
    {
      "inputs": [
        {
          "internalType": "uint256",
          "name": "tokenAmount",
          "type": "uint256"
        }
      ],
      "name": "addLiquidity",
      "outputs": [],
      "stateMutability": "payable",
      "type": "function",
      "payable": true
    },
    {
      "inputs": [
        {
          "internalType": "uint256",
          "name": "minTokens",
          "type": "uint256"
        }
      ],
      "name": "ethToToken",
      "outputs": [],
      "stateMutability": "payable",
      "type": "function",
      "payable": true
    }
  ],
  "bytecode": "0x608060405234801561001057600080fd5b50604051610b2f380380610b2f833981810160405281019061003291906100db565b806000806101000a81548173ffffffffffffffffffffffffffffffffffffffff021916908373ffffffffffffffffffffffffffffffffffffffff16021790555050610108565b600080fd5b600073ffffffffffffffffffffffffffffffffffffffff82169050919050565b60006100a88261007d565b9050919050565b6100b88161009d565b81146100c357600080fd5b50565b6000815190506100d5816100af565b92915050565b6000602082840312156100f1576100f0610078565b5b60006100ff848285016100c6565b91505092915050565b610a18806101176000396000f3fe608060405260043610610067576000357c01000000000000000000000000000000000000000000000000000000009004806302b32af51461006c57806315770f921461009757806351c6590a146100c2578063b8c876b1146100de578063e27a24891461011b575b600080fd5b34801561007857600080fd5b50610081610137565b60405161008e9190610577565b60405180910390f35b3480156100a357600080fd5b506100ac61015b565b6040516100b991906105ab565b60405180910390f35b6100dc60048036038101906100d791906105f7565b610161565b005b3480156100ea57600080fd5b5061010560048036038101906101009190610662565b6102df565b60405161011291906105ab565b60405180910390f35b610135600480360381019061013091906105f7565b6102f7565b005b60008054906101000a900473ffffffffffffffffffffffffffffffffffffffff1681565b60015481565b6000341180156101715750600081115b6101b0576040517f08c379a00000000000000000000000000000000000000000000000000000000081526004016101a7906106ec565b60405180910390fd5b60008054906101000a900473ffffffffffffffffffffffffffffffffffffffff1673ffffffffffffffffffffffffffffffffffffffff166323b872dd3330846040518463ffffffff167c01000000000000000000000000000000000000000000000000000000000281526004016102299392919061071b565b6020604051808303816000875af1158015610248573d6000803e3d6000fd5b505050506040513d601f19601f8201168201806040525081019061026c919061078a565b5034600260003373ffffffffffffffffffffffffffffffffffffffff1673ffffffffffffffffffffffffffffffffffffffff16815260200190815260200160002060008282546102bc91906107e6565b9250508190555034600160008282546102d591906107e6565b9250508190555050565b60026020528060005260406000206000915090505481565b60008060009054906101000a900473ffffffffffffffffffffffffffffffffffffffff1673ffffffffffffffffffffffffffffffffffffffff166370a08231306040518263ffffffff167c010000000000000000000000000000000000000000000000000000000002815260040161036f919061081a565b602060405180830381865afa15801561038c573d6000803e3d6000fd5b505050506040513d601f19601f820116820180604052508101906103b0919061084a565b90506000343073ffffffffffffffffffffffffffffffffffffffff16316103d79190610877565b905060008183346103e891906108ab565b6103f2919061091c565b905083811015610437576040517f08c379a000000000000000000000000000000000000000000000000000000000815260040161042e90610999565b60405180910390fd5b60008054906101000a900473ffffffffffffffffffffffffffffffffffffffff1673ffffffffffffffffffffffffffffffffffffffff1663a9059cbb33836040518363ffffffff167c01000000000000000000000000000000000000000000000000000000000281526004016104ae9291906109b9565b6020604051808303816000875af11580156104cd573d6000803e3d6000fd5b505050506040513d601f19601f820116820180604052508101906104f1919061078a565b5050505050565b600073ffffffffffffffffffffffffffffffffffffffff82169050919050565b6000819050919050565b600061053d610538610533846104f8565b610518565b6104f8565b9050919050565b600061054f82610522565b9050919050565b600061056182610544565b9050919050565b61057181610556565b82525050565b600060208201905061058c6000830184610568565b92915050565b6000819050919050565b6105a581610592565b82525050565b60006020820190506105c0600083018461059c565b92915050565b600080fd5b6105d481610592565b81146105df57600080fd5b50565b6000813590506105f1816105cb565b92915050565b60006020828403121561060d5761060c6105c6565b5b600061061b848285016105e2565b91505092915050565b600061062f826104f8565b9050919050565b61063f81610624565b811461064a57600080fd5b50565b60008135905061065c81610636565b92915050565b600060208284031215610678576106776105c6565b5b60006106868482850161064d565b91505092915050565b600082825260208201905092915050565b7f50726f766964652045544820616e6420546f6b656e7300000000000000000000600082015250565b60006106d660168361068f565b91506106e1826106a0565b602082019050919050565b60006020820190508181036000830152610705816106c9565b9050919050565b61071581610624565b82525050565b6000606082019050610730600083018661070c565b61073d602083018561070c565b61074a604083018461059c565b949350505050565b60008115159050919050565b61076781610752565b811461077257600080fd5b50565b6000815190506107848161075e565b92915050565b6000602082840312156107a05761079f6105c6565b5b60006107ae84828501610775565b91505092915050565b7f4e487b7100000000000000000000000000000000000000000000000000000000600052601160045260246000fd5b60006107f182610592565b91506107fc83610592565b9250828201905080821115610814576108136107b7565b5b92915050565b600060208201905061082f600083018461070c565b92915050565b600081519050610844816105cb565b92915050565b6000602082840312156108605761085f6105c6565b5b600061086e84828501610835565b91505092915050565b600061088282610592565b915061088d83610592565b92508282039050818111156108a5576108a46107b7565b5b92915050565b60006108b682610592565b91506108c183610592565b92508282026108cf81610592565b915082820484148315176108e6576108e56107b7565b5b5092915050565b7f4e487b7100000000000000000000000000000000000000000000000000000000600052601260045260246000fd5b600061092782610592565b915061093283610592565b925082610942576109416108ed565b5b828204905092915050565b7f496e73756666696369656e74206f757470757400000000000000000000000000600082015250565b600061098360138361068f565b915061098e8261094d565b602082019050919050565b600060208201905081810360008301526109b281610976565b9050919050565b60006040820190506109ce600083018561070c565b6109db602083018461059c565b939250505056fea2646970667358221220371355916711b43d371a367fd71cc13cd86dbea3f8b91f496598a7ee9c024c3864736f6c634300081c0033",
  "immutableReferences": {},
  "source": "// SPDX-License-Identifier: MIT\r\npragma solidity ^0.8.0;\r\n\r\nimport \"@openzeppelin/contracts/token/ERC20/IERC20.sol\";\r\n\r\ncontract GreenCreditAMM {\r\n    IERC20 public greenToken;\r\n\r\n    uint256 public totalLiquidity;\r\n    mapping(address => uint256) public liquidity;\r\n\r\n    constructor(address _greenToken) {\r\n        greenToken = IERC20(_greenToken);\r\n    }\r\n\r\n    function addLiquidity(uint256 tokenAmount) public payable {\r\n        require(msg.value > 0 && tokenAmount > 0, \"Provide ETH and Tokens\");\r\n        greenToken.transferFrom(msg.sender, address(this), tokenAmount);\r\n        liquidity[msg.sender] += msg.value;\r\n        totalLiquidity += msg.value;\r\n    }\r\n\r\n    function ethToToken(uint256 minTokens) public payable {\r\n        uint256 tokenReserve = greenToken.balanceOf(address(this));\r\n        uint256 ethReserve = address(this).balance - msg.value;\r\n\r\n        uint256 tokensOut = (msg.value * tokenReserve) / ethReserve;\r\n        require(tokensOut >= minTokens, \"Insufficient output\");\r\n\r\n        greenToken.transfer(msg.sender, tokensOut);\r\n    }\r\n}\r\n",
  "sourcePath": "C:\\Users\\vaish\\Desktop\\majorproject\\contracts\\GreenCreditAMM.sol",
  "compiler": {
    "name": "solc",
    "version": "0.8.28+commit.7893614a.Emscripten.clang"
  },
  "schemaVersion": "3.4.16",
  "updatedAt": "2024-12-14T05:31:47.872Z",
  "networkType": "ethereum",
  "devdoc": {
    "kind": "dev",
    "methods": {},
    "version": 1
  },
  "userdoc": {
    "kind": "user",
    "methods": {},
    "version": 1
  }
}