{
  "contractName": "ParticipantsRegistry",
  "abi": [
    {
      "inputs": [],
      "name": "greenCreditToken",
      "outputs": [
        {
          "internalType": "address",
          "name": "",
          "type": "address"
        }
      ],
      "stateMutability": "view",
      "type": "function",
      "constant": true
    },
    {
      "inputs": [
        {
          "internalType": "address",
          "name": "_greenCreditToken",
          "type": "address"
        }
      ],
      "name": "setGreenCreditToken",
      "outputs": [],
      "stateMutability": "nonpayable",
      "type": "function"
    },
    {
      "inputs": [
        {
          "internalType": "address",
          "name": "_participant",
          "type": "address"
        },
        {
          "internalType": "string",
          "name": "_name",
          "type": "string"
        },
        {
          "internalType": "uint256",
          "name": "_credits",
          "type": "uint256"
        }
      ],
      "name": "registerParticipantFromToken",
      "outputs": [],
      "stateMutability": "nonpayable",
      "type": "function"
    },
    {
      "inputs": [],
      "name": "getParticipants",
      "outputs": [
        {
          "components": [
            {
              "internalType": "address",
              "name": "walletAddress",
              "type": "address"
            },
            {
              "internalType": "string",
              "name": "name",
              "type": "string"
            },
            {
              "internalType": "uint256",
              "name": "credits",
              "type": "uint256"
            }
          ],
          "internalType": "struct ParticipantsRegistry.Participant[]",
          "name": "",
          "type": "tuple[]"
        }
      ],
      "stateMutability": "view",
      "type": "function",
      "constant": true
    },
    {
      "inputs": [
        {
          "internalType": "address",
          "name": "participant",
          "type": "address"
        }
      ],
      "name": "isParticipantRegistered",
      "outputs": [
        {
          "internalType": "bool",
          "name": "",
          "type": "bool"
        }
      ],
      "stateMutability": "view",
      "type": "function",
      "constant": true
    }
  ],
  "bytecode": "0x6080604052348015600f57600080fd5b5061109d8061001f6000396000f3fe608060405234801561001057600080fd5b5060043610610074576000357c010000000000000000000000000000000000000000000000000000000090048063396ff218146100795780633b744b47146100955780634a34495f146100b15780635aa68ac0146100e15780639ee8f4a6146100ff575b600080fd5b610093600480360381019061008e9190610852565b61011d565b005b6100af60048036038101906100aa919061091a565b6101f2565b005b6100cb60048036038101906100c69190610852565b6104d8565b6040516100d891906109a9565b60405180910390f35b6100e9610572565b6040516100f69190610b84565b60405180910390f35b61010761078d565b6040516101149190610bb5565b60405180910390f35b600073ffffffffffffffffffffffffffffffffffffffff16600260009054906101000a900473ffffffffffffffffffffffffffffffffffffffff1673ffffffffffffffffffffffffffffffffffffffff16146101ae576040517f08c379a00000000000000000000000000000000000000000000000000000000081526004016101a590610c2d565b60405180910390fd5b80600260006101000a81548173ffffffffffffffffffffffffffffffffffffffff021916908373ffffffffffffffffffffffffffffffffffffffff16021790555050565b600260009054906101000a900473ffffffffffffffffffffffffffffffffffffffff1673ffffffffffffffffffffffffffffffffffffffff163373ffffffffffffffffffffffffffffffffffffffff1614610282576040517f08c379a000000000000000000000000000000000000000000000000000000000815260040161027990610c99565b60405180910390fd5b600073ffffffffffffffffffffffffffffffffffffffff166000808673ffffffffffffffffffffffffffffffffffffffff1673ffffffffffffffffffffffffffffffffffffffff16815260200190815260200160002060000160009054906101000a900473ffffffffffffffffffffffffffffffffffffffff1673ffffffffffffffffffffffffffffffffffffffff1614610352576040517f08c379a000000000000000000000000000000000000000000000000000000000815260040161034990610d05565b60405180910390fd5b60405180606001604052808573ffffffffffffffffffffffffffffffffffffffff16815260200184848080601f016020809104026020016040519081016040528093929190818152602001838380828437600081840152601f19601f820116905080830192505050505050508152602001828152506000808673ffffffffffffffffffffffffffffffffffffffff1673ffffffffffffffffffffffffffffffffffffffff16815260200190815260200160002060008201518160000160006101000a81548173ffffffffffffffffffffffffffffffffffffffff021916908373ffffffffffffffffffffffffffffffffffffffff16021790555060208201518160010190816104619190610f66565b50604082015181600201559050506001849080600181540180825580915050600190039060005260206000200160009091909190916101000a81548173ffffffffffffffffffffffffffffffffffffffff021916908373ffffffffffffffffffffffffffffffffffffffff16021790555050505050565b60008073ffffffffffffffffffffffffffffffffffffffff166000808473ffffffffffffffffffffffffffffffffffffffff1673ffffffffffffffffffffffffffffffffffffffff16815260200190815260200160002060000160009054906101000a900473ffffffffffffffffffffffffffffffffffffffff1673ffffffffffffffffffffffffffffffffffffffff1614159050919050565b6060600060018054905067ffffffffffffffff81111561059557610594610d25565b5b6040519080825280602002602001820160405280156105ce57816020015b6105bb6107b3565b8152602001906001900390816105b35790505b50905060005b60018054905081101561078557600080600183815481106105f8576105f7611038565b5b9060005260206000200160009054906101000a900473ffffffffffffffffffffffffffffffffffffffff1673ffffffffffffffffffffffffffffffffffffffff1673ffffffffffffffffffffffffffffffffffffffff1681526020019081526020016000206040518060600160405290816000820160009054906101000a900473ffffffffffffffffffffffffffffffffffffffff1673ffffffffffffffffffffffffffffffffffffffff1673ffffffffffffffffffffffffffffffffffffffff1681526020016001820180546106ce90610d83565b80601f01602080910402602001604051908101604052809291908181526020018280546106fa90610d83565b80156107475780601f1061071c57610100808354040283529160200191610747565b820191906000526020600020905b81548152906001019060200180831161072a57829003601f168201915b5050505050815260200160028201548152505082828151811061076d5761076c611038565b5b602002602001018190525080806001019150506105d4565b508091505090565b600260009054906101000a900473ffffffffffffffffffffffffffffffffffffffff1681565b6040518060600160405280600073ffffffffffffffffffffffffffffffffffffffff16815260200160608152602001600081525090565b600080fd5b600080fd5b600073ffffffffffffffffffffffffffffffffffffffff82169050919050565b600061081f826107f4565b9050919050565b61082f81610814565b811461083a57600080fd5b50565b60008135905061084c81610826565b92915050565b600060208284031215610868576108676107ea565b5b60006108768482850161083d565b91505092915050565b600080fd5b600080fd5b600080fd5b60008083601f8401126108a4576108a361087f565b5b8235905067ffffffffffffffff8111156108c1576108c0610884565b5b6020830191508360018202830111156108dd576108dc610889565b5b9250929050565b6000819050919050565b6108f7816108e4565b811461090257600080fd5b50565b600081359050610914816108ee565b92915050565b60008060008060608587031215610934576109336107ea565b5b60006109428782880161083d565b945050602085013567ffffffffffffffff811115610963576109626107ef565b5b61096f8782880161088e565b9350935050604061098287828801610905565b91505092959194509250565b60008115159050919050565b6109a38161098e565b82525050565b60006020820190506109be600083018461099a565b92915050565b600081519050919050565b600082825260208201905092915050565b6000819050602082019050919050565b6109f981610814565b82525050565b600081519050919050565b600082825260208201905092915050565b60005b83811015610a39578082015181840152602081019050610a1e565b60008484015250505050565b6000601f19601f8301169050919050565b6000610a61826109ff565b610a6b8185610a0a565b9350610a7b818560208601610a1b565b610a8481610a45565b840191505092915050565b610a98816108e4565b82525050565b6000606083016000830151610ab660008601826109f0565b5060208301518482036020860152610ace8282610a56565b9150506040830151610ae36040860182610a8f565b508091505092915050565b6000610afa8383610a9e565b905092915050565b6000602082019050919050565b6000610b1a826109c4565b610b2481856109cf565b935083602082028501610b36856109e0565b8060005b85811015610b725784840389528151610b538582610aee565b9450610b5e83610b02565b925060208a01995050600181019050610b3a565b50829750879550505050505092915050565b60006020820190508181036000830152610b9e8184610b0f565b905092915050565b610baf81610814565b82525050565b6000602082019050610bca6000830184610ba6565b92915050565b600082825260208201905092915050565b7f477265656e437265646974546f6b656e20616c72656164792073657400000000600082015250565b6000610c17601c83610bd0565b9150610c2282610be1565b602082019050919050565b60006020820190508181036000830152610c4681610c0a565b9050919050565b7f43616c6c6572206973206e6f7420477265656e437265646974546f6b656e0000600082015250565b6000610c83601e83610bd0565b9150610c8e82610c4d565b602082019050919050565b60006020820190508181036000830152610cb281610c76565b9050919050565b7f416c726561647920726567697374657265640000000000000000000000000000600082015250565b6000610cef601283610bd0565b9150610cfa82610cb9565b602082019050919050565b60006020820190508181036000830152610d1e81610ce2565b9050919050565b7f4e487b7100000000000000000000000000000000000000000000000000000000600052604160045260246000fd5b7f4e487b7100000000000000000000000000000000000000000000000000000000600052602260045260246000fd5b60006002820490506001821680610d9b57607f821691505b602082108103610dae57610dad610d54565b5b50919050565b60008190508160005260206000209050919050565b60006020601f8301049050919050565b60008160020a8302905092915050565b600060088302610e197fffffffffffffffffffffffffffffffffffffffffffffffffffffffffffffffff82610dd9565b610e238683610dd9565b95508019841693508086168417925050509392505050565b6000819050919050565b6000610e60610e5b610e56846108e4565b610e3b565b6108e4565b9050919050565b6000819050919050565b610e7a83610e45565b610e8e610e8682610e67565b848454610de9565b825550505050565b600090565b610ea3610e96565b610eae818484610e71565b505050565b5b81811015610ed257610ec7600082610e9b565b600181019050610eb4565b5050565b601f821115610f1757610ee881610db4565b610ef184610dc9565b81016020851015610f00578190505b610f14610f0c85610dc9565b830182610eb3565b50505b505050565b60008160020a8304905092915050565b6000610f3d60001984600802610f1c565b1980831691505092915050565b6000610f568383610f2c565b9150826002028217905092915050565b610f6f826109ff565b67ffffffffffffffff811115610f8857610f87610d25565b5b610f928254610d83565b610f9d828285610ed6565b600060209050601f831160018114610fd05760008415610fbe578287015190505b610fc88582610f4a565b865550611030565b601f198416610fde86610db4565b60005b8281101561100657848901518255600182019150602085019450602081019050610fe1565b86831015611023578489015161101f601f891682610f2c565b8355505b6001600288020188555050505b505050505050565b7f4e487b7100000000000000000000000000000000000000000000000000000000600052603260045260246000fdfea26469706673582212206459b642b2545128e9e5da01827cfb6561b1f8981fe1b62b24f10704159c519264736f6c634300081c0033",
  "immutableReferences": {},
  "source": "// SPDX-License-Identifier: MIT\r\npragma solidity ^0.8.0;\r\n\r\ncontract ParticipantsRegistry {\r\n    struct Participant {\r\n        address walletAddress;\r\n        string name;\r\n        uint256 credits;\r\n    }\r\n\r\n    mapping(address => Participant) private participants;\r\n    address[] private participantAddresses;\r\n\r\n    // Modifier to restrict access to only GreenCreditToken\r\n    address public greenCreditToken;\r\n\r\n    modifier onlyGreenCreditToken() {\r\n        require(msg.sender == greenCreditToken, \"Caller is not GreenCreditToken\");\r\n        _;\r\n    }\r\n\r\n    // Set the GreenCreditToken address\r\n    function setGreenCreditToken(address _greenCreditToken) external {\r\n        require(greenCreditToken == address(0), \"GreenCreditToken already set\");\r\n        greenCreditToken = _greenCreditToken;\r\n    }\r\n\r\n    // Register a participant (only callable by GreenCreditToken)\r\n    function registerParticipantFromToken(\r\n        address _participant,\r\n        string calldata _name,\r\n        uint256 _credits\r\n    ) external onlyGreenCreditToken {\r\n        require(participants[_participant].walletAddress == address(0), \"Already registered\");\r\n        participants[_participant] = Participant(_participant, _name, _credits);\r\n        participantAddresses.push(_participant);\r\n    }\r\n\r\n    // Public view functions\r\n    function getParticipants() public view returns (Participant[] memory) {\r\n        Participant[] memory participantList = new Participant[](participantAddresses.length);\r\n        for (uint256 i = 0; i < participantAddresses.length; i++) {\r\n            participantList[i] = participants[participantAddresses[i]];\r\n        }\r\n        return participantList;\r\n    }\r\n\r\n    function isParticipantRegistered(address participant) public view returns (bool) {\r\n        return participants[participant].walletAddress != address(0);\r\n    }\r\n}\r\n",
  "sourcePath": "C:\\Users\\vaish\\Desktop\\majorproject\\contracts\\ParticipantsRegistry.sol",
  "compiler": {
    "name": "solc",
    "version": "0.8.28+commit.7893614a.Emscripten.clang"
  },
  "schemaVersion": "3.4.16",
  "updatedAt": "2024-12-15T23:42:35.498Z",
  "networkType": "ethereum",
  "devdoc": {
    "kind": "dev",
    "methods": {},
    "version": 1
  },
  "userdoc": {
    "kind": "user",
    "methods": {},
    "version": 1
  }
}